{
  "_format": "hh-sol-artifact-1",
  "contractName": "CaseStorage",
  "sourceName": "contracts/CaseStorage.sol",
  "abi": [
    {
      "inputs": [
        {
          "internalType": "bytes32",
          "name": "",
          "type": "bytes32"
        }
      ],
      "name": "cases",
      "outputs": [
        {
          "internalType": "string",
          "name": "",
          "type": "string"
        }
      ],
      "stateMutability": "view",
      "type": "function"
    },
    {
      "inputs": [],
      "name": "casesReturn",
      "outputs": [
        {
          "internalType": "string[]",
          "name": "",
          "type": "string[]"
        }
      ],
      "stateMutability": "view",
      "type": "function"
    },
    {
      "inputs": [
        {
          "internalType": "string",
          "name": "str",
          "type": "string"
        }
      ],
      "name": "convertStrToBytes32",
      "outputs": [
        {
          "internalType": "bytes32",
          "name": "",
          "type": "bytes32"
        }
      ],
      "stateMutability": "pure",
      "type": "function"
    },
    {
      "inputs": [
        {
          "internalType": "bytes32",
          "name": "",
          "type": "bytes32"
        }
      ],
      "name": "evidences",
      "outputs": [
        {
          "internalType": "string",
          "name": "caseId",
          "type": "string"
        },
        {
          "internalType": "string",
          "name": "cid",
          "type": "string"
        },
        {
          "internalType": "string",
          "name": "desc",
          "type": "string"
        }
      ],
      "stateMutability": "view",
      "type": "function"
    },
    {
      "inputs": [],
      "name": "evidencesReturn",
      "outputs": [
        {
          "internalType": "string[]",
          "name": "",
          "type": "string[]"
        }
      ],
      "stateMutability": "view",
      "type": "function"
    },
    {
      "inputs": [
        {
          "internalType": "string",
          "name": "caseId",
          "type": "string"
        }
      ],
      "name": "getCase",
      "outputs": [
        {
          "internalType": "string",
          "name": "",
          "type": "string"
        }
      ],
      "stateMutability": "view",
      "type": "function"
    },
    {
      "inputs": [
        {
          "internalType": "string",
          "name": "caseId",
          "type": "string"
        }
      ],
      "name": "getEvidence",
      "outputs": [
        {
          "components": [
            {
              "internalType": "string",
              "name": "caseId",
              "type": "string"
            },
            {
              "internalType": "string",
              "name": "cid",
              "type": "string"
            },
            {
              "internalType": "string",
              "name": "desc",
              "type": "string"
            }
          ],
          "internalType": "struct CaseStorage.Evidences",
          "name": "",
          "type": "tuple"
        }
      ],
      "stateMutability": "view",
      "type": "function"
    },
    {
      "inputs": [
        {
          "internalType": "string",
          "name": "caseId",
          "type": "string"
        },
        {
          "internalType": "string",
          "name": "ipfsHash",
          "type": "string"
        }
      ],
      "name": "setCase",
      "outputs": [],
      "stateMutability": "nonpayable",
      "type": "function"
    },
    {
      "inputs": [
        {
          "internalType": "string",
          "name": "caseId",
          "type": "string"
        },
        {
          "components": [
            {
              "internalType": "string",
              "name": "caseId",
              "type": "string"
            },
            {
              "internalType": "string",
              "name": "cid",
              "type": "string"
            },
            {
              "internalType": "string",
              "name": "desc",
              "type": "string"
            }
          ],
          "internalType": "struct CaseStorage.Evidences",
          "name": "evid",
          "type": "tuple"
        }
      ],
      "name": "setEvidence",
      "outputs": [],
      "stateMutability": "nonpayable",
      "type": "function"
    }
  ],
  "bytecode": "0x608060405234801561001057600080fd5b5061147e806100206000396000f3fe608060405234801561001057600080fd5b50600436106100935760003560e01c8063b16c6ee711610066578063b16c6ee714610120578063cb061ef414610150578063d4e0682614610180578063d84c09de146101b0578063f9840bb8146101e257610093565b80633c460254146100985780633f42b329146100b457806348ea1c23146100d25780635387bf4a14610102575b600080fd5b6100b260048036038101906100ad9190610bf5565b6101fe565b005b6100bc610269565b6040516100c99190610db7565b60405180910390f35b6100ec60048036038101906100e79190610e0f565b610342565b6040516100f99190610e86565b60405180910390f35b61010a6103e2565b6040516101179190610db7565b60405180910390f35b61013a60048036038101906101359190610ea8565b6104bb565b6040516101479190610f4f565b60405180910390f35b61016a60048036038101906101659190610ea8565b6106a6565b6040516101779190610f80565b60405180910390f35b61019a60048036038101906101959190610ea8565b6106d6565b6040516101a79190610e86565b60405180910390f35b6101ca60048036038101906101c59190610e0f565b610782565b6040516101d993929190610f9b565b60405180910390f35b6101fc60048036038101906101f79190610fe7565b610944565b005b6003829080600181540180825580915050600190039060005260206000200160009091909190915090805190602001906102399291906109b3565b508060016000610248856106a6565b81526020019081526020016000208181610262919061143a565b9050505050565b60606003805480602002602001604051908101604052809291908181526020016000905b828210156103395783829060005260206000200180546102ac9061110b565b80601f01602080910402602001604051908101604052809291908181526020018280546102d89061110b565b80156103255780601f106102fa57610100808354040283529160200191610325565b820191906000526020600020905b81548152906001019060200180831161030857829003601f168201915b50505050508152602001906001019061028d565b50505050905090565b600060205280600052604060002060009150905080546103619061110b565b80601f016020809104026020016040519081016040528092919081815260200182805461038d9061110b565b80156103da5780601f106103af576101008083540402835291602001916103da565b820191906000526020600020905b8154815290600101906020018083116103bd57829003601f168201915b505050505081565b60606002805480602002602001604051908101604052809291908181526020016000905b828210156104b25783829060005260206000200180546104259061110b565b80601f01602080910402602001604051908101604052809291908181526020018280546104519061110b565b801561049e5780601f106104735761010080835404028352916020019161049e565b820191906000526020600020905b81548152906001019060200180831161048157829003601f168201915b505050505081526020019060010190610406565b50505050905090565b6104c3610a39565b600160006104d0846106a6565b81526020019081526020016000206040518060600160405290816000820180546104f99061110b565b80601f01602080910402602001604051908101604052809291908181526020018280546105259061110b565b80156105725780601f1061054757610100808354040283529160200191610572565b820191906000526020600020905b81548152906001019060200180831161055557829003601f168201915b5050505050815260200160018201805461058b9061110b565b80601f01602080910402602001604051908101604052809291908181526020018280546105b79061110b565b80156106045780601f106105d957610100808354040283529160200191610604565b820191906000526020600020905b8154815290600101906020018083116105e757829003601f168201915b5050505050815260200160028201805461061d9061110b565b80601f01602080910402602001604051908101604052809291908181526020018280546106499061110b565b80156106965780601f1061066b57610100808354040283529160200191610696565b820191906000526020600020905b81548152906001019060200180831161067957829003601f168201915b5050505050815250509050919050565b6000816040516020016106b99190610e86565b604051602081830303815290604052805190602001209050919050565b60606000806106e4846106a6565b815260200190815260200160002080546106fd9061110b565b80601f01602080910402602001604051908101604052809291908181526020018280546107299061110b565b80156107765780601f1061074b57610100808354040283529160200191610776565b820191906000526020600020905b81548152906001019060200180831161075957829003601f168201915b50505050509050919050565b60016020528060005260406000206000915090508060000180546107a59061110b565b80601f01602080910402602001604051908101604052809291908181526020018280546107d19061110b565b801561081e5780601f106107f35761010080835404028352916020019161081e565b820191906000526020600020905b81548152906001019060200180831161080157829003601f168201915b5050505050908060010180546108339061110b565b80601f016020809104026020016040519081016040528092919081815260200182805461085f9061110b565b80156108ac5780601f10610881576101008083540402835291602001916108ac565b820191906000526020600020905b81548152906001019060200180831161088f57829003601f168201915b5050505050908060020180546108c19061110b565b80601f01602080910402602001604051908101604052809291908181526020018280546108ed9061110b565b801561093a5780601f1061090f5761010080835404028352916020019161093a565b820191906000526020600020905b81548152906001019060200180831161091d57829003601f168201915b5050505050905083565b60028290806001815401808255809150506001900390600052602060002001600090919091909150908051906020019061097f9291906109b3565b508060008061098d856106a6565b815260200190815260200160002090805190602001906109ae9291906109b3565b505050565b8280546109bf9061110b565b90600052602060002090601f0160209004810192826109e15760008555610a28565b82601f106109fa57805160ff1916838001178555610a28565b82800160010185558215610a28579182015b82811115610a27578251825591602001919060010190610a0c565b5b509050610a359190610a5a565b5090565b60405180606001604052806060815260200160608152602001606081525090565b5b80821115610a73576000816000905550600101610a5b565b5090565b6000604051905090565b600080fd5b600080fd5b600080fd5b600080fd5b6000601f19601f8301169050919050565b7f4e487b7100000000000000000000000000000000000000000000000000000000600052604160045260246000fd5b610ade82610a95565b810181811067ffffffffffffffff82111715610afd57610afc610aa6565b5b80604052505050565b6000610b10610a77565b9050610b1c8282610ad5565b919050565b600067ffffffffffffffff821115610b3c57610b3b610aa6565b5b610b4582610a95565b9050602081019050919050565b82818337600083830152505050565b6000610b74610b6f84610b21565b610b06565b905082815260208101848484011115610b9057610b8f610a90565b5b610b9b848285610b52565b509392505050565b600082601f830112610bb857610bb7610a8b565b5b8135610bc8848260208601610b61565b91505092915050565b600080fd5b600060608284031215610bec57610beb610bd1565b5b81905092915050565b60008060408385031215610c0c57610c0b610a81565b5b600083013567ffffffffffffffff811115610c2a57610c29610a86565b5b610c3685828601610ba3565b925050602083013567ffffffffffffffff811115610c5757610c56610a86565b5b610c6385828601610bd6565b9150509250929050565b600081519050919050565b600082825260208201905092915050565b6000819050602082019050919050565b600081519050919050565b600082825260208201905092915050565b60005b83811015610cd3578082015181840152602081019050610cb8565b83811115610ce2576000848401525b50505050565b6000610cf382610c99565b610cfd8185610ca4565b9350610d0d818560208601610cb5565b610d1681610a95565b840191505092915050565b6000610d2d8383610ce8565b905092915050565b6000602082019050919050565b6000610d4d82610c6d565b610d578185610c78565b935083602082028501610d6985610c89565b8060005b85811015610da55784840389528151610d868582610d21565b9450610d9183610d35565b925060208a01995050600181019050610d6d565b50829750879550505050505092915050565b60006020820190508181036000830152610dd18184610d42565b905092915050565b6000819050919050565b610dec81610dd9565b8114610df757600080fd5b50565b600081359050610e0981610de3565b92915050565b600060208284031215610e2557610e24610a81565b5b6000610e3384828501610dfa565b91505092915050565b600082825260208201905092915050565b6000610e5882610c99565b610e628185610e3c565b9350610e72818560208601610cb5565b610e7b81610a95565b840191505092915050565b60006020820190508181036000830152610ea08184610e4d565b905092915050565b600060208284031215610ebe57610ebd610a81565b5b600082013567ffffffffffffffff811115610edc57610edb610a86565b5b610ee884828501610ba3565b91505092915050565b60006060830160008301518482036000860152610f0e8282610ce8565b91505060208301518482036020860152610f288282610ce8565b91505060408301518482036040860152610f428282610ce8565b9150508091505092915050565b60006020820190508181036000830152610f698184610ef1565b905092915050565b610f7a81610dd9565b82525050565b6000602082019050610f956000830184610f71565b92915050565b60006060820190508181036000830152610fb58186610e4d565b90508181036020830152610fc98185610e4d565b90508181036040830152610fdd8184610e4d565b9050949350505050565b60008060408385031215610ffe57610ffd610a81565b5b600083013567ffffffffffffffff81111561101c5761101b610a86565b5b61102885828601610ba3565b925050602083013567ffffffffffffffff81111561104957611048610a86565b5b61105585828601610ba3565b9150509250929050565b600080fd5b600080fd5b600080fd5b6000808335600160200384360303811261108b5761108a61105f565b5b80840192508235915067ffffffffffffffff8211156110ad576110ac611064565b5b6020830192506001820236038313156110c9576110c8611069565b5b509250929050565b600082905092915050565b7f4e487b7100000000000000000000000000000000000000000000000000000000600052602260045260246000fd5b6000600282049050600182168061112357607f821691505b60208210811415611137576111366110dc565b5b50919050565b60008190508160005260206000209050919050565b60006020601f8301049050919050565b600082821b905092915050565b60006008830261119f7fffffffffffffffffffffffffffffffffffffffffffffffffffffffffffffffff82611162565b6111a98683611162565b95508019841693508086168417925050509392505050565b6000819050919050565b6000819050919050565b60006111f06111eb6111e6846111c1565b6111cb565b6111c1565b9050919050565b6000819050919050565b61120a836111d5565b61121e611216826111f7565b84845461116f565b825550505050565b600090565b611233611226565b61123e818484611201565b505050565b5b818110156112625761125760008261122b565b600181019050611244565b5050565b601f8211156112a7576112788161113d565b61128184611152565b81016020851015611290578190505b6112a461129c85611152565b830182611243565b50505b505050565b600082821c905092915050565b60006112ca600019846008026112ac565b1980831691505092915050565b60006112e383836112b9565b9150826002028217905092915050565b6112fd83836110d1565b67ffffffffffffffff81111561131657611315610aa6565b5b611320825461110b565b61132b828285611266565b6000601f83116001811461135a5760008415611348578287013590505b61135285826112d7565b8655506113ba565b601f1984166113688661113d565b60005b828110156113905784890135825560018201915060208501945060208101905061136b565b868310156113ad57848901356113a9601f8916826112b9565b8355505b6001600288020188555050505b50505050505050565b6113ce8383836112f3565b505050565b60008101600083016113e5818561106e565b6113f08183866113c3565b505050506001810160208301611406818561106e565b6114118183866113c3565b505050506002810160408301611427818561106e565b6114328183866113c3565b505050505050565b61144482826113d3565b505056fea26469706673582212207460352e9d9b9da7c56c23e62cdb131986e1f76db5edd2a43c8dd5ca99f0d72c64736f6c63430008090033",
  "linkReferences": {},
  "deployedLinkReferences": {}
}