{
  "_format": "hh-sol-artifact-1",
  "contractName": "CaseStorage",
  "sourceName": "contracts/CaseStorage.sol",
  "abi": [
    {
      "inputs": [
        {
          "internalType": "bytes32",
          "name": "",
          "type": "bytes32"
        }
      ],
      "name": "cases",
      "outputs": [
        {
          "internalType": "string",
          "name": "",
          "type": "string"
        }
      ],
      "stateMutability": "view",
      "type": "function"
    },
    {
      "inputs": [
        {
          "internalType": "bytes32",
          "name": "",
          "type": "bytes32"
        }
      ],
      "name": "evidences",
      "outputs": [
        {
          "internalType": "string",
          "name": "",
          "type": "string"
        }
      ],
      "stateMutability": "view",
      "type": "function"
    },
    {
      "inputs": [
        {
          "internalType": "bytes32",
          "name": "caseId",
          "type": "bytes32"
        }
      ],
      "name": "getCase",
      "outputs": [
        {
          "internalType": "string",
          "name": "",
          "type": "string"
        }
      ],
      "stateMutability": "view",
      "type": "function"
    },
    {
      "inputs": [
        {
          "internalType": "bytes32",
          "name": "caseId",
          "type": "bytes32"
        }
      ],
      "name": "getEvidence",
      "outputs": [
        {
          "internalType": "string",
          "name": "",
          "type": "string"
        }
      ],
      "stateMutability": "view",
      "type": "function"
    },
    {
      "inputs": [
        {
          "internalType": "bytes32",
          "name": "caseId",
          "type": "bytes32"
        },
        {
          "internalType": "string",
          "name": "ipfsHash",
          "type": "string"
        }
      ],
      "name": "setCase",
      "outputs": [],
      "stateMutability": "nonpayable",
      "type": "function"
    },
    {
      "inputs": [
        {
          "internalType": "bytes32",
          "name": "caseId",
          "type": "bytes32"
        },
        {
          "internalType": "string",
          "name": "ipfsHash",
          "type": "string"
        }
      ],
      "name": "setEvidence",
      "outputs": [],
      "stateMutability": "nonpayable",
      "type": "function"
    }
  ],
  "bytecode": "0x608060405234801561001057600080fd5b5061083c806100206000396000f3fe608060405234801561001057600080fd5b50600436106100625760003560e01c806312c2b24214610067578063487e19d51461008357806348ea1c23146100b35780634a7221a0146100e35780639875259714610113578063d84c09de1461012f575b600080fd5b610081600480360381019061007c9190610672565b61015f565b005b61009d600480360381019061009891906106ce565b61018b565b6040516100aa9190610783565b60405180910390f35b6100cd60048036038101906100c891906106ce565b61022f565b6040516100da9190610783565b60405180910390f35b6100fd60048036038101906100f891906106ce565b6102cf565b60405161010a9190610783565b60405180910390f35b61012d60048036038101906101289190610672565b610374565b005b610149600480360381019061014491906106ce565b61039f565b6040516101569190610783565b60405180910390f35b8060016000848152602001908152602001600020908051906020019061018692919061043f565b505050565b606060008083815260200190815260200160002080546101aa906107d4565b80601f01602080910402602001604051908101604052809291908181526020018280546101d6906107d4565b80156102235780601f106101f857610100808354040283529160200191610223565b820191906000526020600020905b81548152906001019060200180831161020657829003601f168201915b50505050509050919050565b6000602052806000526040600020600091509050805461024e906107d4565b80601f016020809104026020016040519081016040528092919081815260200182805461027a906107d4565b80156102c75780601f1061029c576101008083540402835291602001916102c7565b820191906000526020600020905b8154815290600101906020018083116102aa57829003601f168201915b505050505081565b60606001600083815260200190815260200160002080546102ef906107d4565b80601f016020809104026020016040519081016040528092919081815260200182805461031b906107d4565b80156103685780601f1061033d57610100808354040283529160200191610368565b820191906000526020600020905b81548152906001019060200180831161034b57829003601f168201915b50505050509050919050565b80600080848152602001908152602001600020908051906020019061039a92919061043f565b505050565b600160205280600052604060002060009150905080546103be906107d4565b80601f01602080910402602001604051908101604052809291908181526020018280546103ea906107d4565b80156104375780601f1061040c57610100808354040283529160200191610437565b820191906000526020600020905b81548152906001019060200180831161041a57829003601f168201915b505050505081565b82805461044b906107d4565b90600052602060002090601f01602090048101928261046d57600085556104b4565b82601f1061048657805160ff19168380011785556104b4565b828001600101855582156104b4579182015b828111156104b3578251825591602001919060010190610498565b5b5090506104c191906104c5565b5090565b5b808211156104de5760008160009055506001016104c6565b5090565b6000604051905090565b600080fd5b600080fd5b6000819050919050565b610509816104f6565b811461051457600080fd5b50565b60008135905061052681610500565b92915050565b600080fd5b600080fd5b6000601f19601f8301169050919050565b7f4e487b7100000000000000000000000000000000000000000000000000000000600052604160045260246000fd5b61057f82610536565b810181811067ffffffffffffffff8211171561059e5761059d610547565b5b80604052505050565b60006105b16104e2565b90506105bd8282610576565b919050565b600067ffffffffffffffff8211156105dd576105dc610547565b5b6105e682610536565b9050602081019050919050565b82818337600083830152505050565b6000610615610610846105c2565b6105a7565b90508281526020810184848401111561063157610630610531565b5b61063c8482856105f3565b509392505050565b600082601f8301126106595761065861052c565b5b8135610669848260208601610602565b91505092915050565b60008060408385031215610689576106886104ec565b5b600061069785828601610517565b925050602083013567ffffffffffffffff8111156106b8576106b76104f1565b5b6106c485828601610644565b9150509250929050565b6000602082840312156106e4576106e36104ec565b5b60006106f284828501610517565b91505092915050565b600081519050919050565b600082825260208201905092915050565b60005b8381101561073557808201518184015260208101905061071a565b83811115610744576000848401525b50505050565b6000610755826106fb565b61075f8185610706565b935061076f818560208601610717565b61077881610536565b840191505092915050565b6000602082019050818103600083015261079d818461074a565b905092915050565b7f4e487b7100000000000000000000000000000000000000000000000000000000600052602260045260246000fd5b600060028204905060018216806107ec57607f821691505b60208210811415610800576107ff6107a5565b5b5091905056fea264697066735822122006fa58256380d58d0c2de0938d0edb5b0c2293e07808a8d2b3be819594c1237464736f6c63430008090033",
  "linkReferences": {},
  "deployedLinkReferences": {}
}